{
  "_format": "hh-sol-artifact-1",
  "contractName": "SmartBankAccount",
  "sourceName": "contracts/assignment.sol",
  "abi": [
    {
      "inputs": [],
      "name": "Deposit",
      "outputs": [],
      "stateMutability": "payable",
      "type": "function"
    },
    {
      "inputs": [],
      "name": "addMoneyToContract",
      "outputs": [],
      "stateMutability": "payable",
      "type": "function"
    },
    {
      "inputs": [
        {
          "internalType": "string",
          "name": "_name",
          "type": "string"
        },
        {
          "internalType": "uint256",
          "name": "_id",
          "type": "uint256"
        }
      ],
      "name": "createUser",
      "outputs": [
        {
          "components": [
            {
              "internalType": "address",
              "name": "userAddr",
              "type": "address"
            },
            {
              "internalType": "string",
              "name": "name",
              "type": "string"
            },
            {
              "internalType": "uint256",
              "name": "balance",
              "type": "uint256"
            },
            {
              "internalType": "uint256",
              "name": "userId",
              "type": "uint256"
            }
          ],
          "internalType": "struct SmartBankAccount.User",
          "name": "",
          "type": "tuple"
        }
      ],
      "stateMutability": "nonpayable",
      "type": "function"
    },
    {
      "inputs": [
        {
          "internalType": "address",
          "name": "userAddress",
          "type": "address"
        }
      ],
      "name": "getBalance",
      "outputs": [
        {
          "internalType": "uint256",
          "name": "",
          "type": "uint256"
        }
      ],
      "stateMutability": "view",
      "type": "function"
    },
    {
      "inputs": [],
      "name": "getContractBalance",
      "outputs": [
        {
          "internalType": "uint256",
          "name": "",
          "type": "uint256"
        }
      ],
      "stateMutability": "view",
      "type": "function"
    },
    {
      "inputs": [],
      "name": "userReg",
      "outputs": [
        {
          "internalType": "uint256",
          "name": "",
          "type": "uint256"
        }
      ],
      "stateMutability": "view",
      "type": "function"
    },
    {
      "inputs": [
        {
          "internalType": "uint256",
          "name": "id",
          "type": "uint256"
        }
      ],
      "name": "viewUser",
      "outputs": [
        {
          "components": [
            {
              "internalType": "address",
              "name": "userAddr",
              "type": "address"
            },
            {
              "internalType": "string",
              "name": "name",
              "type": "string"
            },
            {
              "internalType": "uint256",
              "name": "balance",
              "type": "uint256"
            },
            {
              "internalType": "uint256",
              "name": "userId",
              "type": "uint256"
            }
          ],
          "internalType": "struct SmartBankAccount.User",
          "name": "",
          "type": "tuple"
        }
      ],
      "stateMutability": "view",
      "type": "function"
    },
    {
      "inputs": [],
      "name": "withdraw",
      "outputs": [],
      "stateMutability": "payable",
      "type": "function"
    }
  ],
  "bytecode": "0x608060405260008055600060015534801561001957600080fd5b50610f24806100296000396000f3fe60806040526004361061007b5760003560e01c80636f9fb98a1161004e5780636f9fb98a146100fc57806382f27c1214610127578063ed21248c14610164578063f8b2cb4f1461016e5761007b565b80630bd93b8b14610080578063121ef243146100ab5780631834ef4e146100e85780633ccfd60b146100f2575b600080fd5b34801561008c57600080fd5b506100956101ab565b6040516100a29190610b27565b60405180910390f35b3480156100b757600080fd5b506100d260048036038101906100cd91906109bf565b6101b1565b6040516100df9190610b05565b60405180910390f35b6100f061041b565b005b6100fa610435565b005b34801561010857600080fd5b506101116104eb565b60405161011e9190610b27565b60405180910390f35b34801561013357600080fd5b5061014e60048036038101906101499190610a13565b6104f4565b60405161015b9190610b05565b60405180910390f35b61016c61061d565b005b34801561017a57600080fd5b5061019560048036038101906101909190610996565b6106bb565b6040516101a29190610b27565b60405180910390f35b60015481565b6101b9610796565b600260008381526020019081526020016000206002600060015481526020019081526020016000206000820160009054906101000a900473ffffffffffffffffffffffffffffffffffffffff168160000160006101000a81548173ffffffffffffffffffffffffffffffffffffffff021916908373ffffffffffffffffffffffffffffffffffffffff160217905550600182018160010190805461025c90610d47565b6102679291906107d4565b5060028201548160020155600382015481600301559050506001600081548092919061029290610daa565b91905055506000600260008481526020019081526020016000209050838160010190805190602001906102c6929190610861565b50338160000160006101000a81548173ffffffffffffffffffffffffffffffffffffffff021916908373ffffffffffffffffffffffffffffffffffffffff160217905550806040518060800160405290816000820160009054906101000a900473ffffffffffffffffffffffffffffffffffffffff1673ffffffffffffffffffffffffffffffffffffffff1673ffffffffffffffffffffffffffffffffffffffff16815260200160018201805461037c90610d47565b80601f01602080910402602001604051908101604052809291908181526020018280546103a890610d47565b80156103f55780601f106103ca576101008083540402835291602001916103f5565b820191906000526020600020905b8154815290600101906020018083116103d857829003601f168201915b505050505081526020016002820154815260200160038201548152505091505092915050565b3460008082825461042c9190610bb4565b92505081905550565b60003390506000610445336106bb565b90508173ffffffffffffffffffffffffffffffffffffffff166108fc829081150290604051600060405180830381858888f1935050505015801561048d573d6000803e3d6000fd5b508060005461049c9190610c95565b6000819055506000600360003373ffffffffffffffffffffffffffffffffffffffff1673ffffffffffffffffffffffffffffffffffffffff168152602001908152602001600020819055505050565b60008054905090565b6104fc610796565b600260008381526020019081526020016000206040518060800160405290816000820160009054906101000a900473ffffffffffffffffffffffffffffffffffffffff1673ffffffffffffffffffffffffffffffffffffffff1673ffffffffffffffffffffffffffffffffffffffff16815260200160018201805461058090610d47565b80601f01602080910402602001604051908101604052809291908181526020018280546105ac90610d47565b80156105f95780601f106105ce576101008083540402835291602001916105f9565b820191906000526020600020905b8154815290600101906020018083116105dc57829003601f168201915b50505050508152602001600282015481526020016003820154815250509050919050565b34600360003373ffffffffffffffffffffffffffffffffffffffff1673ffffffffffffffffffffffffffffffffffffffff168152602001908152602001600020819055503460005461066f9190610bb4565b60008190555042600460003373ffffffffffffffffffffffffffffffffffffffff1673ffffffffffffffffffffffffffffffffffffffff16815260200190815260200160002081905550565b600080600360008473ffffffffffffffffffffffffffffffffffffffff1673ffffffffffffffffffffffffffffffffffffffff1681526020019081526020016000205490506000600460008573ffffffffffffffffffffffffffffffffffffffff1673ffffffffffffffffffffffffffffffffffffffff168152602001908152602001600020544261074d9190610c95565b9050600163bbf81e00826007856107649190610c3b565b61076e9190610c3b565b6107789190610c0a565b836107839190610bb4565b61078d9190610bb4565b92505050919050565b6040518060800160405280600073ffffffffffffffffffffffffffffffffffffffff1681526020016060815260200160008152602001600081525090565b8280546107e090610d47565b90600052602060002090601f0160209004810192826108025760008555610850565b82601f106108135780548555610850565b8280016001018555821561085057600052602060002091601f016020900482015b8281111561084f578254825591600101919060010190610834565b5b50905061085d91906108e7565b5090565b82805461086d90610d47565b90600052602060002090601f01602090048101928261088f57600085556108d6565b82601f106108a857805160ff19168380011785556108d6565b828001600101855582156108d6579182015b828111156108d55782518255916020019190600101906108ba565b5b5090506108e391906108e7565b5090565b5b808211156109005760008160009055506001016108e8565b5090565b600061091761091284610b67565b610b42565b90508281526020810184848401111561092f57600080fd5b61093a848285610d05565b509392505050565b60008135905061095181610ec0565b92915050565b600082601f83011261096857600080fd5b8135610978848260208601610904565b91505092915050565b60008135905061099081610ed7565b92915050565b6000602082840312156109a857600080fd5b60006109b684828501610942565b91505092915050565b600080604083850312156109d257600080fd5b600083013567ffffffffffffffff8111156109ec57600080fd5b6109f885828601610957565b9250506020610a0985828601610981565b9150509250929050565b600060208284031215610a2557600080fd5b6000610a3384828501610981565b91505092915050565b610a4581610cc9565b82525050565b6000610a5682610b98565b610a608185610ba3565b9350610a70818560208601610d14565b610a7981610eaf565b840191505092915050565b6000608083016000830151610a9c6000860182610a3c565b5060208301518482036020860152610ab48282610a4b565b9150506040830151610ac96040860182610ae7565b506060830151610adc6060860182610ae7565b508091505092915050565b610af081610cfb565b82525050565b610aff81610cfb565b82525050565b60006020820190508181036000830152610b1f8184610a84565b905092915050565b6000602082019050610b3c6000830184610af6565b92915050565b6000610b4c610b5d565b9050610b588282610d79565b919050565b6000604051905090565b600067ffffffffffffffff821115610b8257610b81610e80565b5b610b8b82610eaf565b9050602081019050919050565b600081519050919050565b600082825260208201905092915050565b6000610bbf82610cfb565b9150610bca83610cfb565b9250827fffffffffffffffffffffffffffffffffffffffffffffffffffffffffffffffff03821115610bff57610bfe610df3565b5b828201905092915050565b6000610c1582610cfb565b9150610c2083610cfb565b925082610c3057610c2f610e22565b5b828204905092915050565b6000610c4682610cfb565b9150610c5183610cfb565b9250817fffffffffffffffffffffffffffffffffffffffffffffffffffffffffffffffff0483118215151615610c8a57610c89610df3565b5b828202905092915050565b6000610ca082610cfb565b9150610cab83610cfb565b925082821015610cbe57610cbd610df3565b5b828203905092915050565b6000610cd482610cdb565b9050919050565b600073ffffffffffffffffffffffffffffffffffffffff82169050919050565b6000819050919050565b82818337600083830152505050565b60005b83811015610d32578082015181840152602081019050610d17565b83811115610d41576000848401525b50505050565b60006002820490506001821680610d5f57607f821691505b60208210811415610d7357610d72610e51565b5b50919050565b610d8282610eaf565b810181811067ffffffffffffffff82111715610da157610da0610e80565b5b80604052505050565b6000610db582610cfb565b91507fffffffffffffffffffffffffffffffffffffffffffffffffffffffffffffffff821415610de857610de7610df3565b5b600182019050919050565b7f4e487b7100000000000000000000000000000000000000000000000000000000600052601160045260246000fd5b7f4e487b7100000000000000000000000000000000000000000000000000000000600052601260045260246000fd5b7f4e487b7100000000000000000000000000000000000000000000000000000000600052602260045260246000fd5b7f4e487b7100000000000000000000000000000000000000000000000000000000600052604160045260246000fd5b6000601f19601f8301169050919050565b610ec981610cc9565b8114610ed457600080fd5b50565b610ee081610cfb565b8114610eeb57600080fd5b5056fea26469706673582212209d8601a471b99ee831d864b23b397a4b70df7421986a4bc03bb6fba02847605a64736f6c63430008040033",
  "linkReferences": {},
  "deployedLinkReferences": {}
}